{
	"data": {
		"bytecode": {
			"linkReferences": {},
			"object": "6080604052600a60005534801561001557600080fd5b50600180819055506105bf8061002c6000396000f3fe608060405234801561001057600080fd5b506004361061004c5760003560e01c806306fdde0314610051578063262a9dff1461006f5780632bf0f81c1461008d578063af640d0f14610097575b600080fd5b6100596100b5565b6040516100669190610226565b60405180910390f35b610077610143565b6040516100849190610261565b60405180910390f35b610095610149565b005b61009f610190565b6040516100ac9190610261565b60405180910390f35b600280546100c2906102ab565b80601f01602080910402602001604051908101604052809291908181526020018280546100ee906102ab565b801561013b5780601f106101105761010080835404028352916020019161013b565b820191906000526020600020905b81548152906001019060200180831161011e57829003601f168201915b505050505081565b60005481565b6040518060400160405280600881526020017f4a6f686e20446f650000000000000000000000000000000000000000000000008152506002908161018d91906104b7565b50565b60015481565b600081519050919050565b600082825260208201905092915050565b60005b838110156101d05780820151818401526020810190506101b5565b60008484015250505050565b6000601f19601f8301169050919050565b60006101f882610196565b61020281856101a1565b93506102128185602086016101b2565b61021b816101dc565b840191505092915050565b6000602082019050818103600083015261024081846101ed565b905092915050565b6000819050919050565b61025b81610248565b82525050565b60006020820190506102766000830184610252565b92915050565b7f4e487b7100000000000000000000000000000000000000000000000000000000600052602260045260246000fd5b600060028204905060018216806102c357607f821691505b6020821081036102d6576102d561027c565b5b50919050565b7f4e487b7100000000000000000000000000000000000000000000000000000000600052604160045260246000fd5b60008190508160005260206000209050919050565b60006020601f8301049050919050565b600082821b905092915050565b60006008830261036d7fffffffffffffffffffffffffffffffffffffffffffffffffffffffffffffffff82610330565b6103778683610330565b95508019841693508086168417925050509392505050565b6000819050919050565b60006103b46103af6103aa84610248565b61038f565b610248565b9050919050565b6000819050919050565b6103ce83610399565b6103e26103da826103bb565b84845461033d565b825550505050565b600090565b6103f76103ea565b6104028184846103c5565b505050565b5b818110156104265761041b6000826103ef565b600181019050610408565b5050565b601f82111561046b5761043c8161030b565b61044584610320565b81016020851015610454578190505b61046861046085610320565b830182610407565b50505b505050565b600082821c905092915050565b600061048e60001984600802610470565b1980831691505092915050565b60006104a7838361047d565b9150826002028217905092915050565b6104c082610196565b67ffffffffffffffff8111156104d9576104d86102dc565b5b6104e382546102ab565b6104ee82828561042a565b600060209050601f831160018114610521576000841561050f578287015190505b610519858261049b565b865550610581565b601f19841661052f8661030b565b60005b8281101561055757848901518255600182019150602085019450602081019050610532565b868310156105745784890151610570601f89168261047d565b8355505b6001600288020188555050505b50505050505056fea26469706673582212207ad75549eb3045a54452d9b69dc593199b331885505eac98b2af9f0aa6e4b71264736f6c63430008120033",
			"opcodes": "PUSH1 0x80 PUSH1 0x40 MSTORE PUSH1 0xA PUSH1 0x0 SSTORE CALLVALUE DUP1 ISZERO PUSH2 0x15 JUMPI PUSH1 0x0 DUP1 REVERT JUMPDEST POP PUSH1 0x1 DUP1 DUP2 SWAP1 SSTORE POP PUSH2 0x5BF DUP1 PUSH2 0x2C PUSH1 0x0 CODECOPY PUSH1 0x0 RETURN INVALID PUSH1 0x80 PUSH1 0x40 MSTORE CALLVALUE DUP1 ISZERO PUSH2 0x10 JUMPI PUSH1 0x0 DUP1 REVERT JUMPDEST POP PUSH1 0x4 CALLDATASIZE LT PUSH2 0x4C JUMPI PUSH1 0x0 CALLDATALOAD PUSH1 0xE0 SHR DUP1 PUSH4 0x6FDDE03 EQ PUSH2 0x51 JUMPI DUP1 PUSH4 0x262A9DFF EQ PUSH2 0x6F JUMPI DUP1 PUSH4 0x2BF0F81C EQ PUSH2 0x8D JUMPI DUP1 PUSH4 0xAF640D0F EQ PUSH2 0x97 JUMPI JUMPDEST PUSH1 0x0 DUP1 REVERT JUMPDEST PUSH2 0x59 PUSH2 0xB5 JUMP JUMPDEST PUSH1 0x40 MLOAD PUSH2 0x66 SWAP2 SWAP1 PUSH2 0x226 JUMP JUMPDEST PUSH1 0x40 MLOAD DUP1 SWAP2 SUB SWAP1 RETURN JUMPDEST PUSH2 0x77 PUSH2 0x143 JUMP JUMPDEST PUSH1 0x40 MLOAD PUSH2 0x84 SWAP2 SWAP1 PUSH2 0x261 JUMP JUMPDEST PUSH1 0x40 MLOAD DUP1 SWAP2 SUB SWAP1 RETURN JUMPDEST PUSH2 0x95 PUSH2 0x149 JUMP JUMPDEST STOP JUMPDEST PUSH2 0x9F PUSH2 0x190 JUMP JUMPDEST PUSH1 0x40 MLOAD PUSH2 0xAC SWAP2 SWAP1 PUSH2 0x261 JUMP JUMPDEST PUSH1 0x40 MLOAD DUP1 SWAP2 SUB SWAP1 RETURN JUMPDEST PUSH1 0x2 DUP1 SLOAD PUSH2 0xC2 SWAP1 PUSH2 0x2AB JUMP JUMPDEST DUP1 PUSH1 0x1F ADD PUSH1 0x20 DUP1 SWAP2 DIV MUL PUSH1 0x20 ADD PUSH1 0x40 MLOAD SWAP1 DUP2 ADD PUSH1 0x40 MSTORE DUP1 SWAP3 SWAP2 SWAP1 DUP2 DUP2 MSTORE PUSH1 0x20 ADD DUP3 DUP1 SLOAD PUSH2 0xEE SWAP1 PUSH2 0x2AB JUMP JUMPDEST DUP1 ISZERO PUSH2 0x13B JUMPI DUP1 PUSH1 0x1F LT PUSH2 0x110 JUMPI PUSH2 0x100 DUP1 DUP4 SLOAD DIV MUL DUP4 MSTORE SWAP2 PUSH1 0x20 ADD SWAP2 PUSH2 0x13B JUMP JUMPDEST DUP3 ADD SWAP2 SWAP1 PUSH1 0x0 MSTORE PUSH1 0x20 PUSH1 0x0 KECCAK256 SWAP1 JUMPDEST DUP2 SLOAD DUP2 MSTORE SWAP1 PUSH1 0x1 ADD SWAP1 PUSH1 0x20 ADD DUP1 DUP4 GT PUSH2 0x11E JUMPI DUP3 SWAP1 SUB PUSH1 0x1F AND DUP3 ADD SWAP2 JUMPDEST POP POP POP POP POP DUP2 JUMP JUMPDEST PUSH1 0x0 SLOAD DUP2 JUMP JUMPDEST PUSH1 0x40 MLOAD DUP1 PUSH1 0x40 ADD PUSH1 0x40 MSTORE DUP1 PUSH1 0x8 DUP2 MSTORE PUSH1 0x20 ADD PUSH32 0x4A6F686E20446F65000000000000000000000000000000000000000000000000 DUP2 MSTORE POP PUSH1 0x2 SWAP1 DUP2 PUSH2 0x18D SWAP2 SWAP1 PUSH2 0x4B7 JUMP JUMPDEST POP JUMP JUMPDEST PUSH1 0x1 SLOAD DUP2 JUMP JUMPDEST PUSH1 0x0 DUP2 MLOAD SWAP1 POP SWAP2 SWAP1 POP JUMP JUMPDEST PUSH1 0x0 DUP3 DUP3 MSTORE PUSH1 0x20 DUP3 ADD SWAP1 POP SWAP3 SWAP2 POP POP JUMP JUMPDEST PUSH1 0x0 JUMPDEST DUP4 DUP2 LT ISZERO PUSH2 0x1D0 JUMPI DUP1 DUP3 ADD MLOAD DUP2 DUP5 ADD MSTORE PUSH1 0x20 DUP2 ADD SWAP1 POP PUSH2 0x1B5 JUMP JUMPDEST PUSH1 0x0 DUP5 DUP5 ADD MSTORE POP POP POP POP JUMP JUMPDEST PUSH1 0x0 PUSH1 0x1F NOT PUSH1 0x1F DUP4 ADD AND SWAP1 POP SWAP2 SWAP1 POP JUMP JUMPDEST PUSH1 0x0 PUSH2 0x1F8 DUP3 PUSH2 0x196 JUMP JUMPDEST PUSH2 0x202 DUP2 DUP6 PUSH2 0x1A1 JUMP JUMPDEST SWAP4 POP PUSH2 0x212 DUP2 DUP6 PUSH1 0x20 DUP7 ADD PUSH2 0x1B2 JUMP JUMPDEST PUSH2 0x21B DUP2 PUSH2 0x1DC JUMP JUMPDEST DUP5 ADD SWAP2 POP POP SWAP3 SWAP2 POP POP JUMP JUMPDEST PUSH1 0x0 PUSH1 0x20 DUP3 ADD SWAP1 POP DUP2 DUP2 SUB PUSH1 0x0 DUP4 ADD MSTORE PUSH2 0x240 DUP2 DUP5 PUSH2 0x1ED JUMP JUMPDEST SWAP1 POP SWAP3 SWAP2 POP POP JUMP JUMPDEST PUSH1 0x0 DUP2 SWAP1 POP SWAP2 SWAP1 POP JUMP JUMPDEST PUSH2 0x25B DUP2 PUSH2 0x248 JUMP JUMPDEST DUP3 MSTORE POP POP JUMP JUMPDEST PUSH1 0x0 PUSH1 0x20 DUP3 ADD SWAP1 POP PUSH2 0x276 PUSH1 0x0 DUP4 ADD DUP5 PUSH2 0x252 JUMP JUMPDEST SWAP3 SWAP2 POP POP JUMP JUMPDEST PUSH32 0x4E487B7100000000000000000000000000000000000000000000000000000000 PUSH1 0x0 MSTORE PUSH1 0x22 PUSH1 0x4 MSTORE PUSH1 0x24 PUSH1 0x0 REVERT JUMPDEST PUSH1 0x0 PUSH1 0x2 DUP3 DIV SWAP1 POP PUSH1 0x1 DUP3 AND DUP1 PUSH2 0x2C3 JUMPI PUSH1 0x7F DUP3 AND SWAP2 POP JUMPDEST PUSH1 0x20 DUP3 LT DUP2 SUB PUSH2 0x2D6 JUMPI PUSH2 0x2D5 PUSH2 0x27C JUMP JUMPDEST JUMPDEST POP SWAP2 SWAP1 POP JUMP JUMPDEST PUSH32 0x4E487B7100000000000000000000000000000000000000000000000000000000 PUSH1 0x0 MSTORE PUSH1 0x41 PUSH1 0x4 MSTORE PUSH1 0x24 PUSH1 0x0 REVERT JUMPDEST PUSH1 0x0 DUP2 SWAP1 POP DUP2 PUSH1 0x0 MSTORE PUSH1 0x20 PUSH1 0x0 KECCAK256 SWAP1 POP SWAP2 SWAP1 POP JUMP JUMPDEST PUSH1 0x0 PUSH1 0x20 PUSH1 0x1F DUP4 ADD DIV SWAP1 POP SWAP2 SWAP1 POP JUMP JUMPDEST PUSH1 0x0 DUP3 DUP3 SHL SWAP1 POP SWAP3 SWAP2 POP POP JUMP JUMPDEST PUSH1 0x0 PUSH1 0x8 DUP4 MUL PUSH2 0x36D PUSH32 0xFFFFFFFFFFFFFFFFFFFFFFFFFFFFFFFFFFFFFFFFFFFFFFFFFFFFFFFFFFFFFFFF DUP3 PUSH2 0x330 JUMP JUMPDEST PUSH2 0x377 DUP7 DUP4 PUSH2 0x330 JUMP JUMPDEST SWAP6 POP DUP1 NOT DUP5 AND SWAP4 POP DUP1 DUP7 AND DUP5 OR SWAP3 POP POP POP SWAP4 SWAP3 POP POP POP JUMP JUMPDEST PUSH1 0x0 DUP2 SWAP1 POP SWAP2 SWAP1 POP JUMP JUMPDEST PUSH1 0x0 PUSH2 0x3B4 PUSH2 0x3AF PUSH2 0x3AA DUP5 PUSH2 0x248 JUMP JUMPDEST PUSH2 0x38F JUMP JUMPDEST PUSH2 0x248 JUMP JUMPDEST SWAP1 POP SWAP2 SWAP1 POP JUMP JUMPDEST PUSH1 0x0 DUP2 SWAP1 POP SWAP2 SWAP1 POP JUMP JUMPDEST PUSH2 0x3CE DUP4 PUSH2 0x399 JUMP JUMPDEST PUSH2 0x3E2 PUSH2 0x3DA DUP3 PUSH2 0x3BB JUMP JUMPDEST DUP5 DUP5 SLOAD PUSH2 0x33D JUMP JUMPDEST DUP3 SSTORE POP POP POP POP JUMP JUMPDEST PUSH1 0x0 SWAP1 JUMP JUMPDEST PUSH2 0x3F7 PUSH2 0x3EA JUMP JUMPDEST PUSH2 0x402 DUP2 DUP5 DUP5 PUSH2 0x3C5 JUMP JUMPDEST POP POP POP JUMP JUMPDEST JUMPDEST DUP2 DUP2 LT ISZERO PUSH2 0x426 JUMPI PUSH2 0x41B PUSH1 0x0 DUP3 PUSH2 0x3EF JUMP JUMPDEST PUSH1 0x1 DUP2 ADD SWAP1 POP PUSH2 0x408 JUMP JUMPDEST POP POP JUMP JUMPDEST PUSH1 0x1F DUP3 GT ISZERO PUSH2 0x46B JUMPI PUSH2 0x43C DUP2 PUSH2 0x30B JUMP JUMPDEST PUSH2 0x445 DUP5 PUSH2 0x320 JUMP JUMPDEST DUP2 ADD PUSH1 0x20 DUP6 LT ISZERO PUSH2 0x454 JUMPI DUP2 SWAP1 POP JUMPDEST PUSH2 0x468 PUSH2 0x460 DUP6 PUSH2 0x320 JUMP JUMPDEST DUP4 ADD DUP3 PUSH2 0x407 JUMP JUMPDEST POP POP JUMPDEST POP POP POP JUMP JUMPDEST PUSH1 0x0 DUP3 DUP3 SHR SWAP1 POP SWAP3 SWAP2 POP POP JUMP JUMPDEST PUSH1 0x0 PUSH2 0x48E PUSH1 0x0 NOT DUP5 PUSH1 0x8 MUL PUSH2 0x470 JUMP JUMPDEST NOT DUP1 DUP4 AND SWAP2 POP POP SWAP3 SWAP2 POP POP JUMP JUMPDEST PUSH1 0x0 PUSH2 0x4A7 DUP4 DUP4 PUSH2 0x47D JUMP JUMPDEST SWAP2 POP DUP3 PUSH1 0x2 MUL DUP3 OR SWAP1 POP SWAP3 SWAP2 POP POP JUMP JUMPDEST PUSH2 0x4C0 DUP3 PUSH2 0x196 JUMP JUMPDEST PUSH8 0xFFFFFFFFFFFFFFFF DUP2 GT ISZERO PUSH2 0x4D9 JUMPI PUSH2 0x4D8 PUSH2 0x2DC JUMP JUMPDEST JUMPDEST PUSH2 0x4E3 DUP3 SLOAD PUSH2 0x2AB JUMP JUMPDEST PUSH2 0x4EE DUP3 DUP3 DUP6 PUSH2 0x42A JUMP JUMPDEST PUSH1 0x0 PUSH1 0x20 SWAP1 POP PUSH1 0x1F DUP4 GT PUSH1 0x1 DUP2 EQ PUSH2 0x521 JUMPI PUSH1 0x0 DUP5 ISZERO PUSH2 0x50F JUMPI DUP3 DUP8 ADD MLOAD SWAP1 POP JUMPDEST PUSH2 0x519 DUP6 DUP3 PUSH2 0x49B JUMP JUMPDEST DUP7 SSTORE POP PUSH2 0x581 JUMP JUMPDEST PUSH1 0x1F NOT DUP5 AND PUSH2 0x52F DUP7 PUSH2 0x30B JUMP JUMPDEST PUSH1 0x0 JUMPDEST DUP3 DUP2 LT ISZERO PUSH2 0x557 JUMPI DUP5 DUP10 ADD MLOAD DUP3 SSTORE PUSH1 0x1 DUP3 ADD SWAP2 POP PUSH1 0x20 DUP6 ADD SWAP5 POP PUSH1 0x20 DUP2 ADD SWAP1 POP PUSH2 0x532 JUMP JUMPDEST DUP7 DUP4 LT ISZERO PUSH2 0x574 JUMPI DUP5 DUP10 ADD MLOAD PUSH2 0x570 PUSH1 0x1F DUP10 AND DUP3 PUSH2 0x47D JUMP JUMPDEST DUP4 SSTORE POP JUMPDEST PUSH1 0x1 PUSH1 0x2 DUP9 MUL ADD DUP9 SSTORE POP POP POP JUMPDEST POP POP POP POP POP POP JUMP INVALID LOG2 PUSH5 0x6970667358 0x22 SLT KECCAK256 PUSH27 0xD75549EB3045A54452D9B69DC593199B331885505EAC98B2AF9F0A 0xA6 0xE4 0xB7 SLT PUSH5 0x736F6C6343 STOP ADDMOD SLT STOP CALLER "
		},
		"gasEstimates": {
			"creation": {
				"codeDepositCost": "294200",
				"executionCost": "44551",
				"totalCost": "338751"
			},
			"external": {
				"age()": "2429",
				"id()": "2473",
				"name()": "infinite",
				"setName()": "infinite"
			}
		},
		"methodIdentifiers": {
			"age()": "262a9dff",
			"id()": "af640d0f",
			"name()": "06fdde03",
			"setName()": "2bf0f81c"
		}
	},
	"abi": [
		{
			"inputs": [],
			"stateMutability": "nonpayable",
			"type": "constructor"
		},
		{
			"inputs": [],
			"name": "age",
			"outputs": [
				{
					"internalType": "uint256",
					"name": "",
					"type": "uint256"
				}
			],
			"stateMutability": "view",
			"type": "function"
		},
		{
			"inputs": [],
			"name": "id",
			"outputs": [
				{
					"internalType": "uint256",
					"name": "",
					"type": "uint256"
				}
			],
			"stateMutability": "view",
			"type": "function"
		},
		{
			"inputs": [],
			"name": "name",
			"outputs": [
				{
					"internalType": "string",
					"name": "",
					"type": "string"
				}
			],
			"stateMutability": "view",
			"type": "function"
		},
		{
			"inputs": [],
			"name": "setName",
			"outputs": [],
			"stateMutability": "nonpayable",
			"type": "function"
		}
	]
}